{
  "address": "0xCf7Ed3AccA5a467e9e704C703E8D87F634fB0Fc9",
  "abi": [
    {
      "inputs": [
        {
          "internalType": "address",
          "name": "vrfCoordinatorV2",
          "type": "address"
        },
        {
          "internalType": "uint256",
          "name": "entranceFee",
          "type": "uint256"
        },
        {
          "internalType": "bytes32",
          "name": "gasLane",
          "type": "bytes32"
        },
        {
          "internalType": "uint64",
          "name": "subscriptionId",
          "type": "uint64"
        },
        {
          "internalType": "uint32",
          "name": "callbackGasLimit",
          "type": "uint32"
        },
        {
          "internalType": "uint256",
          "name": "interval",
          "type": "uint256"
        }
      ],
      "stateMutability": "nonpayable",
      "type": "constructor"
    },
    {
      "inputs": [
        {
          "internalType": "address",
          "name": "have",
          "type": "address"
        },
        {
          "internalType": "address",
          "name": "want",
          "type": "address"
        }
      ],
      "name": "OnlyCoordinatorCanFulfill",
      "type": "error"
    },
    {
      "inputs": [],
      "name": "Raffle_SignatureWrongLength",
      "type": "error"
    },
    {
      "inputs": [
        {
          "internalType": "uint256",
          "name": "currentBalance",
          "type": "uint256"
        },
        {
          "internalType": "uint256",
          "name": "numPlayers",
          "type": "uint256"
        },
        {
          "internalType": "uint256",
          "name": "raffleState",
          "type": "uint256"
        }
      ],
      "name": "Raffle_UpkeeNotNeeded",
      "type": "error"
    },
    {
      "inputs": [],
      "name": "Raffle__NotEnoughEthEntered",
      "type": "error"
    },
    {
      "inputs": [],
      "name": "Raffle__NotOpen",
      "type": "error"
    },
    {
      "inputs": [],
      "name": "Raffle__TransferFailed",
      "type": "error"
    },
    {
      "anonymous": false,
      "inputs": [
        {
          "indexed": true,
          "internalType": "address",
          "name": "player",
          "type": "address"
        }
      ],
      "name": "RaffleEnter",
      "type": "event"
    },
    {
      "anonymous": false,
      "inputs": [
        {
          "indexed": true,
          "internalType": "uint256",
          "name": "requestId",
          "type": "uint256"
        }
      ],
      "name": "RequestedRaffleWinner",
      "type": "event"
    },
    {
      "anonymous": false,
      "inputs": [
        {
          "indexed": true,
          "internalType": "address",
          "name": "winner",
          "type": "address"
        },
        {
          "indexed": true,
          "internalType": "uint256",
          "name": "winAmount",
          "type": "uint256"
        }
      ],
      "name": "WinnerPicked",
      "type": "event"
    },
    {
      "inputs": [
        {
          "internalType": "bytes",
          "name": "",
          "type": "bytes"
        }
      ],
      "name": "checkUpkeep",
      "outputs": [
        {
          "internalType": "bool",
          "name": "upkeepNeeded",
          "type": "bool"
        },
        {
          "internalType": "bytes",
          "name": "",
          "type": "bytes"
        }
      ],
      "stateMutability": "nonpayable",
      "type": "function"
    },
    {
      "inputs": [],
      "name": "enterRaffle",
      "outputs": [],
      "stateMutability": "payable",
      "type": "function"
    },
    {
      "inputs": [],
      "name": "getAllPlayers",
      "outputs": [
        {
          "internalType": "address payable[]",
          "name": "",
          "type": "address[]"
        }
      ],
      "stateMutability": "view",
      "type": "function"
    },
    {
      "inputs": [],
      "name": "getEntranceFee",
      "outputs": [
        {
          "internalType": "uint256",
          "name": "",
          "type": "uint256"
        }
      ],
      "stateMutability": "view",
      "type": "function"
    },
    {
      "inputs": [],
      "name": "getInterval",
      "outputs": [
        {
          "internalType": "uint256",
          "name": "",
          "type": "uint256"
        }
      ],
      "stateMutability": "view",
      "type": "function"
    },
    {
      "inputs": [],
      "name": "getLatestTimeStamp",
      "outputs": [
        {
          "internalType": "uint256",
          "name": "",
          "type": "uint256"
        }
      ],
      "stateMutability": "view",
      "type": "function"
    },
    {
      "inputs": [],
      "name": "getNumWords",
      "outputs": [
        {
          "internalType": "uint256",
          "name": "",
          "type": "uint256"
        }
      ],
      "stateMutability": "pure",
      "type": "function"
    },
    {
      "inputs": [],
      "name": "getNumberOfPlayers",
      "outputs": [
        {
          "internalType": "uint256",
          "name": "",
          "type": "uint256"
        }
      ],
      "stateMutability": "view",
      "type": "function"
    },
    {
      "inputs": [
        {
          "internalType": "uint256",
          "name": "index",
          "type": "uint256"
        }
      ],
      "name": "getPlayer",
      "outputs": [
        {
          "internalType": "address",
          "name": "",
          "type": "address"
        }
      ],
      "stateMutability": "view",
      "type": "function"
    },
    {
      "inputs": [],
      "name": "getRaffleState",
      "outputs": [
        {
          "internalType": "enum Raffle.RaffleState",
          "name": "",
          "type": "uint8"
        }
      ],
      "stateMutability": "view",
      "type": "function"
    },
    {
      "inputs": [],
      "name": "getRecentWinner",
      "outputs": [
        {
          "internalType": "address",
          "name": "",
          "type": "address"
        }
      ],
      "stateMutability": "view",
      "type": "function"
    },
    {
      "inputs": [],
      "name": "getRequestConfirmations",
      "outputs": [
        {
          "internalType": "uint256",
          "name": "",
          "type": "uint256"
        }
      ],
      "stateMutability": "pure",
      "type": "function"
    },
    {
      "inputs": [
        {
          "internalType": "bytes",
          "name": "",
          "type": "bytes"
        }
      ],
      "name": "performUpkeep",
      "outputs": [],
      "stateMutability": "nonpayable",
      "type": "function"
    },
    {
      "inputs": [
        {
          "internalType": "uint256",
          "name": "requestId",
          "type": "uint256"
        },
        {
          "internalType": "uint256[]",
          "name": "randomWords",
          "type": "uint256[]"
        }
      ],
      "name": "rawFulfillRandomWords",
      "outputs": [],
      "stateMutability": "nonpayable",
      "type": "function"
    },
    {
      "inputs": [
        {
          "internalType": "bytes",
          "name": "_signature",
          "type": "bytes"
        },
        {
          "internalType": "address",
          "name": "_signer",
          "type": "address"
        },
        {
          "internalType": "string",
          "name": "_message",
          "type": "string"
        }
      ],
      "name": "verify",
      "outputs": [
        {
          "internalType": "bool",
          "name": "",
          "type": "bool"
        }
      ],
      "stateMutability": "pure",
      "type": "function"
    }
  ],
  "transactionHash": "0x93d88d733d704dec62e4b38f208174b48f5c0326ca6e6f6360c07a499cf45206",
  "args": [
    "0x5FbDB2315678afecb367f032d93F642f64180aa3",
    "5000000000000000",
    "0x474e34a077df58807dbe9c96d3c009b23b3c6d0cce433e59bbf5b34f823bc56c",
    "1",
    "500000",
    "30"
  ],
  "numDeployments": 1,
  "solcInputHash": "fd6434d0efa53d5dfeb7224282908fa0",
  "bytecode": "0x61016060405234801561001157600080fd5b5060405161109538038061109583398101604081905261003091610084565b6001600160a01b0395909516608081905260a09490945260c09390935260e0919091526001600160401b03166101005263ffffffff16610120526001805460ff60a01b19169055426002556101405261010f565b60008060008060008060c0878903121561009d57600080fd5b86516001600160a01b03811681146100b457600080fd5b6020880151604089015160608a015192985090965094506001600160401b03811681146100e057600080fd5b608088015190935063ffffffff811681146100fa57600080fd5b8092505060a087015190509295509295509295565b60805160a05160c05160e051610100516101205161014051610f1861017d6000396000818161027c01526106b6015260006105640152600061052d01526000610507015260006105a301526000818160fc015261038601526000818161030201526103440152610f186000f3fe6080604052600436106100e85760003560e01c80634f480a2b1161008a57806391ad27b41161005957806391ad27b41461026d578063e55ae4e8146102a0578063efa1c482146102c0578063fd6673f5146102e257600080fd5b80634f480a2b146101e757806353a2c19a146102175780635f1b0fd81461022b5780636e04ff0d1461023f57600080fd5b80632cfcc539116100c65780632cfcc53914610178578063320229eb146101805780634585e33b14610195578063473f1ddc146101b557600080fd5b806309bc33a7146100ed578063115cbaf51461012f5780631fe543e314610156575b600080fd5b3480156100f957600080fd5b507f00000000000000000000000000000000000000000000000000000000000000005b6040519081526020015b60405180910390f35b34801561013b57600080fd5b50600154600160a01b900460ff166040516101269190610aa7565b34801561016257600080fd5b50610176610171366004610b16565b6102f7565b005b610176610384565b34801561018c57600080fd5b5060025461011c565b3480156101a157600080fd5b506101766101b0366004610bc8565b61046f565b3480156101c157600080fd5b506001546001600160a01b03165b6040516001600160a01b039091168152602001610126565b3480156101f357600080fd5b50610207610202366004610cb9565b610644565b6040519015158152602001610126565b34801561022357600080fd5b50600161011c565b34801561023757600080fd5b50600361011c565b34801561024b57600080fd5b5061025f61025a366004610d51565b610686565b604051610126929190610db2565b34801561027957600080fd5b507f000000000000000000000000000000000000000000000000000000000000000061011c565b3480156102ac57600080fd5b506101cf6102bb366004610dee565b610716565b3480156102cc57600080fd5b506102d5610745565b6040516101269190610e07565b3480156102ee57600080fd5b5060005461011c565b336001600160a01b037f000000000000000000000000000000000000000000000000000000000000000016146103765760405163073e64fd60e21b81523360048201526001600160a01b037f00000000000000000000000000000000000000000000000000000000000000001660248201526044015b60405180910390fd5b61038082826107a7565b5050565b7f00000000000000000000000000000000000000000000000000000000000000003410156103c55760405163066d781f60e01b815260040160405180910390fd5b600060018054600160a01b900460ff16908111156103e5576103e5610a91565b146104035760405163050955c760e21b815260040160405180910390fd5b600080546001810182558180527f290decd9548b62a8d60345a988386fc84ba6bc95484008f6362f93160ef3e5630180546001600160a01b0319163390811790915560405190917f0805e1d667bddb8a95f0f09880cf94f403fb596ce79928d9f29b74203ba284d491a2565b600061048960405180602001604052806000815250610686565b509050806104e35747600080549050600160149054906101000a900460ff1660018111156104b9576104b9610a91565b60405163275e187b60e21b815260048101939093526024830191909152604482015260640161036d565b60018054600160a01b60ff60a01b199091161781556040516305d3b1d360e41b81527f000000000000000000000000000000000000000000000000000000000000000060048201527f000000000000000000000000000000000000000000000000000000000000000067ffffffffffffffff166024820152600360448201527f000000000000000000000000000000000000000000000000000000000000000063ffffffff16606482015260848101919091526000906001600160a01b037f00000000000000000000000000000000000000000000000000000000000000001690635d3b1d309060a4016020604051808303816000875af11580156105ec573d6000803e3d6000fd5b505050506040513d601f19601f820116820180604052508101906106109190610e54565b60405190915081907fcd6e45c8998311cab7e9d4385596cac867e20a0587194b954fa3a731c93ce78b90600090a250505050565b600080610650836108e7565b9050600061065d82610917565b9050600061066b8288610952565b6001600160a01b039081169087161493505050509392505050565b600060606000600160149054906101000a900460ff1660018111156106ad576106ad610a91565b600014905060007f0000000000000000000000000000000000000000000000000000000000000000600254426106e39190610e6d565b6000549110915015154715158380156106f95750825b80156107025750815b801561070b5750805b955050505050915091565b600080828154811061072a5761072a610e8e565b6000918252602090912001546001600160a01b031692915050565b6060600080548060200260200160405190810160405280929190818152602001828054801561079d57602002820191906000526020600020905b81546001600160a01b0316815260019091019060200180831161077f575b5050505050905090565b600080548251839083906107bd576107bd610e8e565b60200260200101516107cf9190610ea4565b905060008082815481106107e5576107e5610e8e565b600091825260208083209190910154600180546001600160a81b0319166001600160a01b03909216918217905560408051848152928301908190529151909350610830929190610a17565b504260025560405147906000906001600160a01b0384169047908381818185875af1925050503d8060008114610882576040519150601f19603f3d011682016040523d82523d6000602084013e610887565b606091505b50509050806108a95760405163a1d04b3960e01b815260040160405180910390fd5b60405182906001600160a01b038516907f64791dbae5677392ba76761a5273633cec8f1d9d8cfe808da7bac6ef16a880be90600090a3505050505050565b6000816040516020016108fa9190610ec6565b604051602081830303815290604052805190602001209050919050565b6040517f19457468657265756d205369676e6564204d6573736167653a0a3332000000006020820152603c8101829052600090605c016108fa565b600080600080610961856109d2565b6040805160008152602081018083528b905260ff8316918101919091526060810184905260808101839052929550909350915060019060a0016020604051602081039080840390855afa1580156109bc573d6000803e3d6000fd5b5050506020604051035193505050505b92915050565b600080600083516041146109f9576040516311ed343b60e31b815260040160405180910390fd5b50505060208101516040820151606090920151909260009190911a90565b828054828255906000526020600020908101928215610a6c579160200282015b82811115610a6c57825182546001600160a01b0319166001600160a01b03909116178255602090920191600190910190610a37565b50610a78929150610a7c565b5090565b5b80821115610a785760008155600101610a7d565b634e487b7160e01b600052602160045260246000fd5b6020810160028310610ac957634e487b7160e01b600052602160045260246000fd5b91905290565b634e487b7160e01b600052604160045260246000fd5b604051601f8201601f1916810167ffffffffffffffff81118282101715610b0e57610b0e610acf565b604052919050565b60008060408385031215610b2957600080fd5b8235915060208084013567ffffffffffffffff80821115610b4957600080fd5b818601915086601f830112610b5d57600080fd5b813581811115610b6f57610b6f610acf565b8060051b9150610b80848301610ae5565b8181529183018401918481019089841115610b9a57600080fd5b938501935b83851015610bb857843582529385019390850190610b9f565b8096505050505050509250929050565b60008060208385031215610bdb57600080fd5b823567ffffffffffffffff80821115610bf357600080fd5b818501915085601f830112610c0757600080fd5b813581811115610c1657600080fd5b866020828501011115610c2857600080fd5b60209290920196919550909350505050565b600067ffffffffffffffff831115610c5457610c54610acf565b610c67601f8401601f1916602001610ae5565b9050828152838383011115610c7b57600080fd5b828260208301376000602084830101529392505050565b600082601f830112610ca357600080fd5b610cb283833560208501610c3a565b9392505050565b600080600060608486031215610cce57600080fd5b833567ffffffffffffffff80821115610ce657600080fd5b610cf287838801610c92565b9450602086013591506001600160a01b0382168214610d1057600080fd5b90925060408501359080821115610d2657600080fd5b508401601f81018613610d3857600080fd5b610d4786823560208401610c3a565b9150509250925092565b600060208284031215610d6357600080fd5b813567ffffffffffffffff811115610d7a57600080fd5b610d8684828501610c92565b949350505050565b60005b83811015610da9578181015183820152602001610d91565b50506000910152565b82151581526040602082015260008251806040840152610dd9816060850160208701610d8e565b601f01601f1916919091016060019392505050565b600060208284031215610e0057600080fd5b5035919050565b6020808252825182820181905260009190848201906040850190845b81811015610e485783516001600160a01b031683529284019291840191600101610e23565b50909695505050505050565b600060208284031215610e6657600080fd5b5051919050565b818103818111156109cc57634e487b7160e01b600052601160045260246000fd5b634e487b7160e01b600052603260045260246000fd5b600082610ec157634e487b7160e01b600052601260045260246000fd5b500690565b60008251610ed8818460208701610d8e565b919091019291505056fea264697066735822122054eeef89b4975c5635df3c198c1fb6f23115adccb04266b0934c65cc2dbc4cb864736f6c63430008130033",
  "devdoc": {
    "kind": "dev",
    "methods": {
      "checkUpkeep(bytes)": {
        "details": "This is the funciton that the chainlink Keeper nodes call the ylook for the \"upkeepNeeded\" to return true. The following should b etrue in order to return true: 1. Our time interval should have passed 2. The lottery should have at least 1 player and have some Eth 3. Our subscription is funded with LINK 4. The lottery should be in an \"open\" State"
      }
    },
    "version": 1
  },
  "userdoc": {
    "kind": "user",
    "methods": {},
    "version": 1
  },
  "storageLayout": {
    "storage": [
      {
        "astId": 209,
        "contract": "contracts/Raffle.sol:Raffle",
        "label": "s_players",
        "offset": 0,
        "slot": "0",
        "type": "t_array(t_address_payable)dyn_storage"
      },
      {
        "astId": 226,
        "contract": "contracts/Raffle.sol:Raffle",
        "label": "s_recentWinner",
        "offset": 0,
        "slot": "1",
        "type": "t_address"
      },
      {
        "astId": 229,
        "contract": "contracts/Raffle.sol:Raffle",
        "label": "s_raffleState",
        "offset": 20,
        "slot": "1",
        "type": "t_enum(RaffleState)204"
      },
      {
        "astId": 231,
        "contract": "contracts/Raffle.sol:Raffle",
        "label": "s_lastTimeStamp",
        "offset": 0,
        "slot": "2",
        "type": "t_uint256"
      }
    ],
    "types": {
      "t_address": {
        "encoding": "inplace",
        "label": "address",
        "numberOfBytes": "20"
      },
      "t_address_payable": {
        "encoding": "inplace",
        "label": "address payable",
        "numberOfBytes": "20"
      },
      "t_array(t_address_payable)dyn_storage": {
        "base": "t_address_payable",
        "encoding": "dynamic_array",
        "label": "address payable[]",
        "numberOfBytes": "32"
      },
      "t_enum(RaffleState)204": {
        "encoding": "inplace",
        "label": "enum Raffle.RaffleState",
        "numberOfBytes": "1"
      },
      "t_uint256": {
        "encoding": "inplace",
        "label": "uint256",
        "numberOfBytes": "32"
      }
    }
  }
}