{
  "address": "0xCf7Ed3AccA5a467e9e704C703E8D87F634fB0Fc9",
  "abi": [
    {
      "inputs": [
        {
          "internalType": "address",
          "name": "vrfCoordinatorV2",
          "type": "address"
        },
        {
          "internalType": "uint256",
          "name": "entranceFee",
          "type": "uint256"
        },
        {
          "internalType": "bytes32",
          "name": "gasLane",
          "type": "bytes32"
        },
        {
          "internalType": "uint64",
          "name": "subscriptionId",
          "type": "uint64"
        },
        {
          "internalType": "uint32",
          "name": "callbackGasLimit",
          "type": "uint32"
        },
        {
          "internalType": "uint256",
          "name": "interval",
          "type": "uint256"
        }
      ],
      "stateMutability": "nonpayable",
      "type": "constructor"
    },
    {
      "inputs": [
        {
          "internalType": "address",
          "name": "have",
          "type": "address"
        },
        {
          "internalType": "address",
          "name": "want",
          "type": "address"
        }
      ],
      "name": "OnlyCoordinatorCanFulfill",
      "type": "error"
    },
    {
      "inputs": [],
      "name": "Raffle_SignatureWrongLength",
      "type": "error"
    },
    {
      "inputs": [
        {
          "internalType": "uint256",
          "name": "currentBalance",
          "type": "uint256"
        },
        {
          "internalType": "uint256",
          "name": "numPlayers",
          "type": "uint256"
        },
        {
          "internalType": "uint256",
          "name": "raffleState",
          "type": "uint256"
        }
      ],
      "name": "Raffle_UpkeeNotNeeded",
      "type": "error"
    },
    {
      "inputs": [],
      "name": "Raffle__NotEnoughEthEntered",
      "type": "error"
    },
    {
      "inputs": [],
      "name": "Raffle__NotOpen",
      "type": "error"
    },
    {
      "inputs": [],
      "name": "Raffle__TransferFailed",
      "type": "error"
    },
    {
      "anonymous": false,
      "inputs": [
        {
          "indexed": true,
          "internalType": "address",
          "name": "player",
          "type": "address"
        }
      ],
      "name": "RaffleEnter",
      "type": "event"
    },
    {
      "anonymous": false,
      "inputs": [
        {
          "indexed": true,
          "internalType": "uint256",
          "name": "requestId",
          "type": "uint256"
        }
      ],
      "name": "RequestedRaffleWinner",
      "type": "event"
    },
    {
      "anonymous": false,
      "inputs": [
        {
          "indexed": true,
          "internalType": "address",
          "name": "winner",
          "type": "address"
        },
        {
          "indexed": true,
          "internalType": "uint256",
          "name": "winAmount",
          "type": "uint256"
        }
      ],
      "name": "WinnerPicked",
      "type": "event"
    },
    {
      "inputs": [
        {
          "internalType": "bytes",
          "name": "",
          "type": "bytes"
        }
      ],
      "name": "checkUpkeep",
      "outputs": [
        {
          "internalType": "bool",
          "name": "upkeepNeeded",
          "type": "bool"
        },
        {
          "internalType": "bytes",
          "name": "",
          "type": "bytes"
        }
      ],
      "stateMutability": "nonpayable",
      "type": "function"
    },
    {
      "inputs": [],
      "name": "enterRaffle",
      "outputs": [],
      "stateMutability": "payable",
      "type": "function"
    },
    {
      "inputs": [],
      "name": "getAllPlayers",
      "outputs": [
        {
          "internalType": "address payable[]",
          "name": "",
          "type": "address[]"
        }
      ],
      "stateMutability": "view",
      "type": "function"
    },
    {
      "inputs": [],
      "name": "getEntranceFee",
      "outputs": [
        {
          "internalType": "uint256",
          "name": "",
          "type": "uint256"
        }
      ],
      "stateMutability": "view",
      "type": "function"
    },
    {
      "inputs": [],
      "name": "getInterval",
      "outputs": [
        {
          "internalType": "uint256",
          "name": "",
          "type": "uint256"
        }
      ],
      "stateMutability": "view",
      "type": "function"
    },
    {
      "inputs": [],
      "name": "getLatestTimeStamp",
      "outputs": [
        {
          "internalType": "uint256",
          "name": "",
          "type": "uint256"
        }
      ],
      "stateMutability": "view",
      "type": "function"
    },
    {
      "inputs": [],
      "name": "getNumWords",
      "outputs": [
        {
          "internalType": "uint256",
          "name": "",
          "type": "uint256"
        }
      ],
      "stateMutability": "pure",
      "type": "function"
    },
    {
      "inputs": [],
      "name": "getNumberOfPlayers",
      "outputs": [
        {
          "internalType": "uint256",
          "name": "",
          "type": "uint256"
        }
      ],
      "stateMutability": "view",
      "type": "function"
    },
    {
      "inputs": [
        {
          "internalType": "uint256",
          "name": "index",
          "type": "uint256"
        }
      ],
      "name": "getPlayer",
      "outputs": [
        {
          "internalType": "address",
          "name": "",
          "type": "address"
        }
      ],
      "stateMutability": "view",
      "type": "function"
    },
    {
      "inputs": [],
      "name": "getRaffleState",
      "outputs": [
        {
          "internalType": "enum Raffle.RaffleState",
          "name": "",
          "type": "uint8"
        }
      ],
      "stateMutability": "view",
      "type": "function"
    },
    {
      "inputs": [],
      "name": "getRecentWinner",
      "outputs": [
        {
          "internalType": "address",
          "name": "",
          "type": "address"
        }
      ],
      "stateMutability": "view",
      "type": "function"
    },
    {
      "inputs": [],
      "name": "getRequestConfirmations",
      "outputs": [
        {
          "internalType": "uint256",
          "name": "",
          "type": "uint256"
        }
      ],
      "stateMutability": "pure",
      "type": "function"
    },
    {
      "inputs": [
        {
          "internalType": "uint256",
          "name": "_myValue",
          "type": "uint256"
        },
        {
          "internalType": "bytes",
          "name": "_signature",
          "type": "bytes"
        },
        {
          "internalType": "address",
          "name": "contractAddress",
          "type": "address"
        }
      ],
      "name": "getSigner",
      "outputs": [
        {
          "internalType": "address",
          "name": "",
          "type": "address"
        }
      ],
      "stateMutability": "pure",
      "type": "function"
    },
    {
      "inputs": [
        {
          "internalType": "bytes",
          "name": "",
          "type": "bytes"
        }
      ],
      "name": "performUpkeep",
      "outputs": [],
      "stateMutability": "nonpayable",
      "type": "function"
    },
    {
      "inputs": [
        {
          "internalType": "uint256",
          "name": "requestId",
          "type": "uint256"
        },
        {
          "internalType": "uint256[]",
          "name": "randomWords",
          "type": "uint256[]"
        }
      ],
      "name": "rawFulfillRandomWords",
      "outputs": [],
      "stateMutability": "nonpayable",
      "type": "function"
    },
    {
      "inputs": [
        {
          "internalType": "bytes",
          "name": "_signature",
          "type": "bytes"
        },
        {
          "internalType": "address",
          "name": "_signer",
          "type": "address"
        },
        {
          "internalType": "string",
          "name": "_message",
          "type": "string"
        }
      ],
      "name": "verify",
      "outputs": [
        {
          "internalType": "bool",
          "name": "",
          "type": "bool"
        }
      ],
      "stateMutability": "pure",
      "type": "function"
    }
  ],
  "transactionHash": "0x06cbf7cdd1a832898f71a6771b04a302cbab39339f57e7e68a9729c7f1c1c23f",
  "args": [
    "0x5FbDB2315678afecb367f032d93F642f64180aa3",
    "5000000000000000",
    "0x474e34a077df58807dbe9c96d3c009b23b3c6d0cce433e59bbf5b34f823bc56c",
    "1",
    "500000",
    "30"
  ],
  "numDeployments": 1,
  "solcInputHash": "85e574dee64c7863beb59222cfe38454",
  "bytecode": "0x61016060405234801561001157600080fd5b5060405161146d38038061146d83398101604081905261003091610084565b6001600160a01b0395909516608081905260a09490945260c09390935260e0919091526001600160401b03166101005263ffffffff16610120526001805460ff60a01b19169055426002556101405261010f565b60008060008060008060c0878903121561009d57600080fd5b86516001600160a01b03811681146100b457600080fd5b6020880151604089015160608a015192985090965094506001600160401b03811681146100e057600080fd5b608088015190935063ffffffff811681146100fa57600080fd5b8092505060a087015190509295509295509295565b60805160a05160c05160e0516101005161012051610140516112ef61017e600039600081816102ab01526109be0152600061086c015260006108350152600061080f015260006108ab015260008181610107015261068e015260008181610331015261037301526112ef6000f3fe6080604052600436106100f35760003560e01c80634f480a2b1161008a57806391ad27b41161005957806391ad27b41461029c578063e55ae4e8146102cf578063efa1c482146102ef578063fd6673f51461031157600080fd5b80634f480a2b1461021657806353a2c19a146102465780635f1b0fd81461025a5780636e04ff0d1461026e57600080fd5b80632cfcc539116100c65780632cfcc539146101bb578063320229eb146101c35780634585e33b146101d8578063473f1ddc146101f857600080fd5b806309bc33a7146100f8578063115cbaf51461013a5780631fe543e3146101615780632cf3c94114610183575b600080fd5b34801561010457600080fd5b507f00000000000000000000000000000000000000000000000000000000000000005b6040519081526020015b60405180910390f35b34801561014657600080fd5b50600154600160a01b900460ff166040516101319190610daf565b34801561016d57600080fd5b5061018161017c366004610e1e565b610326565b005b34801561018f57600080fd5b506101a361019e366004610f64565b6103b3565b6040516001600160a01b039091168152602001610131565b61018161068c565b3480156101cf57600080fd5b50600254610127565b3480156101e457600080fd5b506101816101f3366004610fbb565b610777565b34801561020457600080fd5b506001546001600160a01b03166101a3565b34801561022257600080fd5b5061023661023136600461102d565b61094c565b6040519015158152602001610131565b34801561025257600080fd5b506001610127565b34801561026657600080fd5b506003610127565b34801561027a57600080fd5b5061028e6102893660046110b5565b61098e565b604051610131929190611116565b3480156102a857600080fd5b507f0000000000000000000000000000000000000000000000000000000000000000610127565b3480156102db57600080fd5b506101a36102ea366004611152565b610a1e565b3480156102fb57600080fd5b50610304610a4d565b604051610131919061116b565b34801561031d57600080fd5b50600054610127565b336001600160a01b037f000000000000000000000000000000000000000000000000000000000000000016146103a55760405163073e64fd60e21b81523360048201526001600160a01b037f00000000000000000000000000000000000000000000000000000000000000001660248201526044015b60405180910390fd5b6103af8282610aaf565b5050565b604080518082018252601081526f457468657265756d204c6f747465727960801b6020808301919091528251808401845260018152603160f81b8183015283516080810190945260528085526000949192617a69928792879261126890830139905060006040518060400160405280601881526020017f4d6573736167652875696e74323536206d7956616c7565290000000000000000815250905060008260405160200161046291906111b8565b604051602081830303815290604052805190602001208760405160200161048991906111b8565b60405160208183030381529060405280519060200120876040516020016104b091906111b8565b60408051601f198184030181528282528051602091820120908301949094528101919091526060810191909152608081018690526001600160a01b03851660a082015260c0016040516020818303038152906040528051906020012090506000818360405160200161052291906111b8565b60408051601f1981840301815282825280516020918201209083015281018e90526060016040516020818303038152906040528051906020012060405160200161058392919061190160f01b81526002810192909252602282015260420190565b60405160208183030381529060405280519060200120905060008060008d516041146105bd5760009b505050505050505050505050610685565b50505060208b015160408c015160608d015160001a601b8110156105e9576105e6601b826111ea565b90505b8060ff16601b1415801561060157508060ff16601c14155b1561061a5760009b505050505050505050505050610685565b60408051600081526020810180835286905260ff831691810191909152606081018490526080810183905260019060a0016020604051602081039080840390855afa15801561066d573d6000803e3d6000fd5b505050602060405103519b5050505050505050505050505b9392505050565b7f00000000000000000000000000000000000000000000000000000000000000003410156106cd5760405163066d781f60e01b815260040160405180910390fd5b600060018054600160a01b900460ff16908111156106ed576106ed610d99565b1461070b5760405163050955c760e21b815260040160405180910390fd5b600080546001810182558180527f290decd9548b62a8d60345a988386fc84ba6bc95484008f6362f93160ef3e5630180546001600160a01b0319163390811790915560405190917f0805e1d667bddb8a95f0f09880cf94f403fb596ce79928d9f29b74203ba284d491a2565b60006107916040518060200160405280600081525061098e565b509050806107eb5747600080549050600160149054906101000a900460ff1660018111156107c1576107c1610d99565b60405163275e187b60e21b815260048101939093526024830191909152604482015260640161039c565b60018054600160a01b60ff60a01b199091161781556040516305d3b1d360e41b81527f000000000000000000000000000000000000000000000000000000000000000060048201527f000000000000000000000000000000000000000000000000000000000000000067ffffffffffffffff166024820152600360448201527f000000000000000000000000000000000000000000000000000000000000000063ffffffff16606482015260848101919091526000906001600160a01b037f00000000000000000000000000000000000000000000000000000000000000001690635d3b1d309060a4016020604051808303816000875af11580156108f4573d6000803e3d6000fd5b505050506040513d601f19601f820116820180604052508101906109189190611203565b60405190915081907fcd6e45c8998311cab7e9d4385596cac867e20a0587194b954fa3a731c93ce78b90600090a250505050565b60008061095883610bef565b9050600061096582610c1f565b905060006109738288610c5a565b6001600160a01b039081169087161493505050509392505050565b600060606000600160149054906101000a900460ff1660018111156109b5576109b5610d99565b600014905060007f0000000000000000000000000000000000000000000000000000000000000000600254426109eb919061121c565b600054911091501515471515838015610a015750825b8015610a0a5750815b8015610a135750805b955050505050915091565b6000808281548110610a3257610a3261122f565b6000918252602090912001546001600160a01b031692915050565b60606000805480602002602001604051908101604052809291908181526020018280548015610aa557602002820191906000526020600020905b81546001600160a01b03168152600190910190602001808311610a87575b5050505050905090565b60008054825183908390610ac557610ac561122f565b6020026020010151610ad79190611245565b90506000808281548110610aed57610aed61122f565b600091825260208083209190910154600180546001600160a81b0319166001600160a01b03909216918217905560408051848152928301908190529151909350610b38929190610d1f565b504260025560405147906000906001600160a01b0384169047908381818185875af1925050503d8060008114610b8a576040519150601f19603f3d011682016040523d82523d6000602084013e610b8f565b606091505b5050905080610bb15760405163a1d04b3960e01b815260040160405180910390fd5b60405182906001600160a01b038516907f64791dbae5677392ba76761a5273633cec8f1d9d8cfe808da7bac6ef16a880be90600090a3505050505050565b600081604051602001610c0291906111b8565b604051602081830303815290604052805190602001209050919050565b6040517f19457468657265756d205369676e6564204d6573736167653a0a3332000000006020820152603c8101829052600090605c01610c02565b600080600080610c6985610cda565b6040805160008152602081018083528b905260ff8316918101919091526060810184905260808101839052929550909350915060019060a0016020604051602081039080840390855afa158015610cc4573d6000803e3d6000fd5b5050506020604051035193505050505b92915050565b60008060008351604114610d01576040516311ed343b60e31b815260040160405180910390fd5b50505060208101516040820151606090920151909260009190911a90565b828054828255906000526020600020908101928215610d74579160200282015b82811115610d7457825182546001600160a01b0319166001600160a01b03909116178255602090920191600190910190610d3f565b50610d80929150610d84565b5090565b5b80821115610d805760008155600101610d85565b634e487b7160e01b600052602160045260246000fd5b6020810160028310610dd157634e487b7160e01b600052602160045260246000fd5b91905290565b634e487b7160e01b600052604160045260246000fd5b604051601f8201601f1916810167ffffffffffffffff81118282101715610e1657610e16610dd7565b604052919050565b60008060408385031215610e3157600080fd5b8235915060208084013567ffffffffffffffff80821115610e5157600080fd5b818601915086601f830112610e6557600080fd5b813581811115610e7757610e77610dd7565b8060051b9150610e88848301610ded565b8181529183018401918481019089841115610ea257600080fd5b938501935b83851015610ec057843582529385019390850190610ea7565b8096505050505050509250929050565b600067ffffffffffffffff831115610eea57610eea610dd7565b610efd601f8401601f1916602001610ded565b9050828152838383011115610f1157600080fd5b828260208301376000602084830101529392505050565b600082601f830112610f3957600080fd5b61068583833560208501610ed0565b80356001600160a01b0381168114610f5f57600080fd5b919050565b600080600060608486031215610f7957600080fd5b83359250602084013567ffffffffffffffff811115610f9757600080fd5b610fa386828701610f28565b925050610fb260408501610f48565b90509250925092565b60008060208385031215610fce57600080fd5b823567ffffffffffffffff80821115610fe657600080fd5b818501915085601f830112610ffa57600080fd5b81358181111561100957600080fd5b86602082850101111561101b57600080fd5b60209290920196919550909350505050565b60008060006060848603121561104257600080fd5b833567ffffffffffffffff8082111561105a57600080fd5b61106687838801610f28565b945061107460208701610f48565b9350604086013591508082111561108a57600080fd5b508401601f8101861361109c57600080fd5b6110ab86823560208401610ed0565b9150509250925092565b6000602082840312156110c757600080fd5b813567ffffffffffffffff8111156110de57600080fd5b6110ea84828501610f28565b949350505050565b60005b8381101561110d5781810151838201526020016110f5565b50506000910152565b8215158152604060208201526000825180604084015261113d8160608501602087016110f2565b601f01601f1916919091016060019392505050565b60006020828403121561116457600080fd5b5035919050565b6020808252825182820181905260009190848201906040850190845b818110156111ac5783516001600160a01b031683529284019291840191600101611187565b50909695505050505050565b600082516111ca8184602087016110f2565b9190910192915050565b634e487b7160e01b600052601160045260246000fd5b60ff8181168382160190811115610cd457610cd46111d4565b60006020828403121561121557600080fd5b5051919050565b81810381811115610cd457610cd46111d4565b634e487b7160e01b600052603260045260246000fd5b60008261126257634e487b7160e01b600052601260045260246000fd5b50069056fe454950373132446f6d61696e28737472696e67206e616d652c737472696e672076657273696f6e2c75696e7432353620636861696e49642c6164647265737320766572696679696e67436f6e747261637429a2646970667358221220b83c8b84e179dfcfdf7dc5bda67515697bdc04054214441232de1b4776312ab664736f6c63430008130033",
  "devdoc": {
    "kind": "dev",
    "methods": {
      "checkUpkeep(bytes)": {
        "details": "This is the funciton that the chainlink Keeper nodes call the ylook for the \"upkeepNeeded\" to return true. The following should b etrue in order to return true: 1. Our time interval should have passed 2. The lottery should have at least 1 player and have some Eth 3. Our subscription is funded with LINK 4. The lottery should be in an \"open\" State"
      }
    },
    "version": 1
  },
  "userdoc": {
    "kind": "user",
    "methods": {},
    "version": 1
  },
  "storageLayout": {
    "storage": [
      {
        "astId": 209,
        "contract": "contracts/Raffle.sol:Raffle",
        "label": "s_players",
        "offset": 0,
        "slot": "0",
        "type": "t_array(t_address_payable)dyn_storage"
      },
      {
        "astId": 226,
        "contract": "contracts/Raffle.sol:Raffle",
        "label": "s_recentWinner",
        "offset": 0,
        "slot": "1",
        "type": "t_address"
      },
      {
        "astId": 229,
        "contract": "contracts/Raffle.sol:Raffle",
        "label": "s_raffleState",
        "offset": 20,
        "slot": "1",
        "type": "t_enum(RaffleState)204"
      },
      {
        "astId": 231,
        "contract": "contracts/Raffle.sol:Raffle",
        "label": "s_lastTimeStamp",
        "offset": 0,
        "slot": "2",
        "type": "t_uint256"
      }
    ],
    "types": {
      "t_address": {
        "encoding": "inplace",
        "label": "address",
        "numberOfBytes": "20"
      },
      "t_address_payable": {
        "encoding": "inplace",
        "label": "address payable",
        "numberOfBytes": "20"
      },
      "t_array(t_address_payable)dyn_storage": {
        "base": "t_address_payable",
        "encoding": "dynamic_array",
        "label": "address payable[]",
        "numberOfBytes": "32"
      },
      "t_enum(RaffleState)204": {
        "encoding": "inplace",
        "label": "enum Raffle.RaffleState",
        "numberOfBytes": "1"
      },
      "t_uint256": {
        "encoding": "inplace",
        "label": "uint256",
        "numberOfBytes": "32"
      }
    }
  }
}